:020000040800F2
:10000000E804002091050008611E0008631E000836
:10001000651E0008671E0008691E00080000000039
:100020000000000000000000000000006B1E00083F
:100030006D1E0008000000006F1E0008711E000801
:100040008D0500088D0500088D0500088D05000848
:100050008D0500088D0500088D0500088D05000838
:100060008D0500088D0500088D0500088D05000828
:100070008D0500088D0500088D0500088D05000818
:100080008D0500088D0500088D0500088D05000808
:10009000731E00088D0500088D0500088D050008F9
:1000A0008D0500088D0500088D0500088D050008E8
:1000B000690500088D0500088D0500088D050008FC
:1000C0008D0500088D0500088D0500088D050008C8
:1000D0008D0500088D0500088D0500088D050008B8
:1000E0008D0500088D0500087B1E0008000000003B
:1000F0000000000000000000000000000000000000
:1001000000000000000000005FF808F17047704731
:100110002DE9F041074603885E00202B21D0EEB187
:10012000402501244FF0C008B54228BFF5B2761B28
:10013000204601F0E5FC3028FAD02A4641463846F0
:1001400001F066FC2946204601F086FD204601F0BC
:10015000E0FC05F0FE031F44002EE5D10020BDE8C1
:10016000F0813E25DDE7000008B5184B1B6803B1A0
:1001700008BD174B1968032001F0C6FD134B5B68DF
:10018000D3B9134B1B681B885B00104A9360402B4C
:1001900001D9403B53600E4A1368034413600B4B74
:1001A0005B682BB9094B03F10C0111609A681A6066
:1001B000032001F0C1FCDBE7834203D31B1A034A8F
:1001C0005360E8E7014B00225A60E4E7E8040020AE
:1001D000000000202DE9F04190B00446544800F0A2
:1001E0007BFC0023ADF82C304FF48272ADF82E204A
:1001F0004FF40072ADF83620ADF83C302389B3FAE5
:1002000083F35B09DB01ADF83A306389003B18BF2B
:100210000123DB02ADF83030A388003B18BF012377
:100220005B00ADF83230E388003B18BF0123ADF826
:10023000343023683F4A934214D23F4A93426CD8E9
:100240003E4A93426BD83E4A93426AD83D4A934213
:1002500069D83D4A934268D83C4A93428CBF3023C8
:10026000382300E00023ADF83830314C0BA920468C
:1002700000F064FC0021204600F0A6FC012120468D
:1002800000F088FC00220321204600F091FC0121AF
:10029000084600F0D5FBDFF8B880404600F062FA6F
:1002A0002C4E304600F05EFA684600F00CFB2A4BFC
:1002B00000930023029303930493802205924FF44A
:1002C000807206924FF48067079708934FF40052AC
:1002D00009920A936946404600F0D8FA07974FF40E
:1002E00040530993102302936946304600F0CEFA3A
:1002F0001A4B5A6C22F001025A649A6D22F00102E4
:100300009A651A6822F408321A60012203212046F5
:1003100000F04EFC10B0BDE8F0810823A3E71023E5
:10032000A1E718239FE720239DE728239BE700BF31
:1003300000380040001BB7007F8D5B00BFC62D005A
:100340005FE31600AF710B00D7B805006BDC02004D
:1003500044000240580002400C38004000000240B7
:1003600070B586B0012141F21D0000F077FB01213C
:10037000084600F065FB01214FF4804000F06EFB61
:100380000121434800F078FB0823ADF8043004262F
:100390008DF807600DEB06053E4C2946204600F01F
:1003A000A5FAADF8046003238DF8063018238DF804
:1003B00007302946204600F099FA4FF4E1330293C2
:1003C0000024ADF80C40ADF80E40ADF81040ADF88B
:1003D00014400C23ADF8123002AD2F4E29463046A2
:1003E00000F07AFC0121304600F0D0FC01210846E3
:1003F00000F042FB21464FF0804000F04FFC01210D
:100400004FF0804000F064FC012211464FF0804024
:1004100000F052FC1C238DF8083002238DF80930BF
:100420008DF80A4001238DF80B30284600F066F95C
:100430001A4BD3F8FC3013F0807F0CD1174AD2F856
:10044000FC3043F08073C2F8FC30154B5C601A68D6
:1004500042F001021A6001F07DFC01F0ABFC01F0FA
:10046000B3FC01F081F902F012F802F0A9F80D4C8A
:1004700004F10C06002500E025602368002BFCD069
:10048000637C002BF8D1304602F0ACF8F4E700BFF3
:1004900005400200000801400044004000ED00E07B
:1004A000001000E0E804002000B583B001238B4079
:1004B0009BB2013A032A03D8DFE802F00A040608D7
:1004C000042206E0282204E0482202E0142200E090
:1004D0001022ADF804308DF8072003238DF8063084
:1004E00000F58010423001A9800200F0FFF903B04E
:1004F0005DF804FB10B584B0044600214FF0804045
:1005000000F0CCFB013CADF808404BF68033ADF871
:1005100004300024ADF80A401023ADF8063001A9DC
:100520004FF0804000F05EFB01214FF0804000F072
:10053000CFFB044B1C6001214FF0804000F0AEFB6C
:1005400004B010BDF814002008B5FFF7D3FF024A2D
:100550001368002BFCD008BDF8140020014B18686C
:10056000704700BFF814002008B500214FF080400C
:1005700000F094FB01214FF0804000F0A9FB024BFA
:1005800001221A6008BD00BFF8140020FEE7000039
:1005900008B50F4A0F4B9A420CD2581E801A20F011
:1005A000030004300C4B184453F8041B42F8041B9E
:1005B0008342F9D109480A494FF000028842B8BF86
:1005C00040F8042BFADB00F00DF8FFF7C9FE08BD78
:1005D00000000020E800002034640008E804002047
:1005E0006416002082B03C4B1A6842F001021A6087
:1005F00059683A4A0A405A601A6822F0847222F412
:1006000080321A601A6822F480221A605A6822F432
:10061000FE025A604FF41F029A600022009201927B
:100620001A6842F480321A601A46136803F40033E1
:100630000193009B01330093019B1BB9009BB3F511
:10064000A06FF2D1244B1B6813F4003F14BF0123A9
:1006500000230193019B012B05D0214B4FF0006239
:100660009A6002B070471F4B1A6842F010021A607D
:100670001A6822F007021A601A6842F001021A6032
:10068000A3F580535A685A605A685A605A6842F40F
:1006900080625A605A6822F47C125A605A6842F4A6
:1006A00088125A601A6842F080721A601A461368FB
:1006B00013F0007FFBD0084B5A6822F003025A6007
:1006C0005A6842F002025A601A46536803F00C035B
:1006D000082BFAD1C1E700BF001002400000FFF86C
:1006E00000ED00E00020024040F0BF6040F4003028
:1006F000014BD860704700BF00ED00E0C37803B342
:10070000164BDA68D243C2F30222C2F104034178E5
:10071000994083784FF00F0C2CFA02F213400278C4
:100720000B431B01DBB20E490A4482F80033037805
:10073000580903F01F03012202FA03F341F82030A5
:10074000704703785A0903F01F030121994002F111
:100750002003034A42F82310704700BF00ED00E079
:1007600000E100E0036823F001031B041B0C03609D
:100770000023036043608360C360364B984221D0FE
:10078000354B984224D0354B984227D0344B984271
:100790002AD0344B98422DD0334B984230D0334B33
:1007A000984233D0324B984236D0324B984239D0AF
:1007B000314B98423CD0314B98423FD0304B98421D
:1007C00042D070472F4A536843F00F03536070477D
:1007D0002C4A536843F0F00353607047294A53682A
:1007E00043F4706353607047264A536843F4704380
:1007F00053607047234A536843F470235360704733
:10080000204A536843F47003536070471D4A53688D
:1008100043F07063536070471B4A536843F00F0303
:1008200053607047184A536843F0F00353607047B1
:10083000154A536843F4706353607047124A536813
:1008400043F47043536070470F4A536843F4702376
:100850005360B6E7080002401C000240300002402E
:1008600044000240580002406C00024080000240F8
:10087000080402401C0402403004024044040240C8
:1008800058040240000002400004024010B4026814
:100890006FF30E128B680C6A23430C6923434C6977
:1008A00023438C692343CC6923434C6A23438C6ADA
:1008B000234313430360CB6843600B6883604B683A
:1008C000C36010BC70470023036043608360C36053
:1008D000036143618361C361036243628362704762
:1008E000014B5861704700BF000401402DE9F04101
:1008F000CB7803F00F0E13F0100F1CBF8B784EEA6D
:10090000030E0B78F3B10568002301260F2703E0DF
:1009100044610133082B14D006FA03F40A8834EA40
:100920000202F6D19A0007FA02FC25EA0C050EFA3B
:1009300002F21543CA78282AEAD0482A08BF04617F
:10094000E7E705600B88FF2B25D9D0F8048000234A
:1009500001260F2702E00133082B1AD003F1080209
:1009600006FA02F2B1F800C032EA0C0CF3D19C0096
:1009700007FA04F528EA05050EFA04F444EA050826
:10098000CC78282C08BF4261CC78482C08BF026183
:10099000E1E7C0F80480BDE8F08101617047416182
:1009A00070470000014BC3F8D80070470000424276
:1009B00010B41F4B5B6803F00C03082B21D01D4BB8
:1009C00003601B494C68C4F303141B4A145DE340E5
:1009D00043604C68C4F30224145D23FA04F4846079
:1009E0004C68C4F3C22C12F80C40E340C360496861
:1009F000C1F381310A44127CB3FBF2F3036110BCF2
:100A000070470B4A53685268C3F38343023312F4AE
:100A1000803F03D1094A02FB03F3D1E7044A52683D
:100A200012F4003F14BF054A024A02FB03F3C7E772
:100A30000010024000127A009863000800093D008F
:100A400021B1054A5369034353617047024A536910
:100A500023EA0003536170470010024021B1054AA8
:100A60009369034393617047024A936923EA000341
:100A7000936170470010024021B1054AD3690343D6
:100A8000D3617047024AD36923EA0003D3617047F8
:100A90000010024021B1054AD3680343D360704778
:100AA000024AD36823EA0003D36070470010024073
:100AB00021B1054A1369034313617047024A136960
:100AC00023EA00031361704700100240014BD87104
:100AD000704700BF0010024008B5154B984206D081
:100AE000144B98420ED0144B984216D008BD0121E9
:100AF0004FF48050FFF7CEFF00214FF48050FFF7F6
:100B0000C9FFF3E701214FF48040FFF7D1FF002137
:100B10004FF48040FFF7CCFFE8E701214FF400409D
:100B2000FFF7C6FF00214FF40040FFF7C1FFDDE7EC
:100B30000030014000380040003C0040038803F4CE
:100B400041520B88B1F802C043EA0C03B1F804C06B
:100B500043EA0C03B1F806C043EA0C03B1F808C03D
:100B600043EA0C03B1F80AC043EA0C03B1F80CC025
:100B700043EA0C03B1F80EC043EA0C0313439BB2E3
:100B80000380838B23F400631B041B0C83830B8A79
:100B90000382704729B103889BB243F0400303806E
:100BA0007047038823F040031B041B0C038070472D
:100BB00022B183889BB20B438380704783889BB2AA
:100BC00023EA01038380704729B103889BB243F471
:100BD000005303807047038823F400531B041B0C4D
:100BE0000380704703889BB2284A90421BD002F5CD
:100BF0000062904217D0B0F1804F14D0A2F5983225
:100C0000904210D002F5806290420CD002F58062D2
:100C1000904208D01E4A904224D103808B8883855D
:100C20000B8803851BE023F070034A88134323F4E9
:100C30004073CA88134303808B8883850B880385A0
:100C4000124B984209D0134B984206D0124B98424F
:100C500003D003F58063984212D10B7A03860123F7
:100C60008382704702F580629042D6D023F44073AD
:100C7000CA88134303808B8883850B880385E5E747
:100C800003F580639842E8D0E9E700BF002C0140FB
:100C900000100040003401400040014029B10388A9
:100CA0009BB243F0010303807047038823F00103E4
:100CB0001B041B0C0380704722B183899BB20B433A
:100CC0008381704783899BB223EA01038381704744
:100CD000C94389B20182704730B587B004460D46DA
:100CE000038A9BB223F44053CA8813430382838947
:100CF0009BB223F4B05323F00C038A8813430A8970
:100D000013434A8913439BB28381838A9BB223F4A2
:100D100040738A891343838201A8FFF749FE194B68
:100D20009C420CBF049B039BA28912F4004F03EB6F
:100D3000830303EB83032A6814BF52009200B3FBC2
:100D4000F2F3114AA2FB031252091101642000FBC5
:100D50001233A28912F4004F0BD11B0132330A4A1D
:100D6000A2FB0323C3F343130B439BB2238107B0BE
:100D700030BDDB003233044AA2FB0323C3F342132A
:100D80000B43F2E7003801401F85EB5129B18389FD
:100D90009BB243F4005383817047838923F400534B
:100DA0001B041B0C83817047038801EA0300003891
:100DB00018BF01207047000008B538B1064B1B680A
:100DC0001B689847054B18680A3008BD034B1B6821
:100DD00001221A82F9E700BF28150020041500201F
:100DE00008B538B1064B1B689B689847054B1868D7
:100DF0000C3008BD034B1B6801221A82F9E700BFC3
:100E0000281500200415002008B5F8B1274B002252
:100E10001A80274B1A68137813F07F031BD1537A7B
:100E200013F0200F02D0214A0221117013F0400F5D
:100E30001E4A137814BF43F0010323F0010313701B
:100E40001C4B1B681B699847184808BD184B1B684A
:100E500002221A82F9E7012B24D0022B24D15279E5
:100E600002F00F0312F0800F0ED19B0003F18043BC
:100E700003F5B8431B6803F44053B3F5805FDFD13B
:100E80000A4B01221A70DBE79B0003F1804303F554
:100E9000B8431B6803F03003102BD1D1034B012260
:100EA0001A70CDE70148D0E70020CEE7FC140020FF
:100EB0000415002028150020F8B5264B1D682B8A44
:100EC000F3B92A7A042A02D0AC8A04271DE0224B07
:100ED0009B78012B04D0214B10221A80072734E085
:100EE0001F4BD3F8502C92B21E4B13445B000022D0
:100EF0001A601A4B30211980174B9A70042724E08E
:100F0000AC8AA3428CBF022704279C4228BF1C4600
:100F1000AB69204698470646002000F07DFE01465A
:100F20002246304600F074FD2146002000F094FE79
:100F30002B8A1B1B2B826B8A1C446C82074B302232
:100F40001A80094B4FF440521A80024B1B681F72E3
:100F5000F8BD00BF04150020FC140020341500204B
:100F600000500040023000203215002010B50C4B1C
:100F70001B68DA780B49497891420AD39C7854B9B6
:100F8000998851B99A72084B1B685B68984720464C
:100F900010BD0224FBE70224F9E70224F7E700BFB3
:100FA00004150020E40000202815002010B5124C84
:100FB0002368124A12689269D97858799047236851
:100FC0009A7A7AB188B91A798AB99C788CB90C4B1B
:100FD0001B68DB689847084B1B685A79DA72DA7825
:100FE0001A7300E00224204610BD0224FBE702240D
:100FF000F9E70224F7E700BF0415002024150020BC
:101000002815002038B5444B1A68137813F07F0375
:1010100003D0022B08D0022404E0537A23F02003EB
:1010200053720024204638BD5388002B69D11479AF
:10103000002C68D1537923F080005BB2002B4FEA7B
:10104000800101F1804101F5B8410968B4BF01F0A8
:10105000300101F44051314D95F800C0844554D918
:10106000002954D0927A002A53D0002B0FDB850040
:1010700005F1804505F5B8452B6803F44053B3F5F9
:10108000805F17D0264B1B685B699847CAE78300CF
:1010900003F1804303F5B8431B6803F03003102BC2
:1010A000F0D1C5B2284600F07EFD3021284600F080
:1010B000F1FCE7E7A8B91B4B93F82C1000F0DCFD1E
:1010C000194AD2F8003C23F4804323F070039BB20A
:1010D00083F4405343F4004343F08003C2F8003CE0
:1010E000D0E700F04CFD2B6823F4804323F070031D
:1010F0009BB283F4405343F4004343F080032B60DE
:10110000C0E702248EE702248CE702248AE7022447
:1011100088E7022486E700BF04150020E4000020D1
:1011200028150020600000200050004010B5294B19
:101130001868427922F0800352B2002A4FEA8301F4
:1011400001F1804101F5B8410968B4BF01F03001F7
:1011500001F44051204C94F800C09C4531D944889A
:101160008CBB91B3817A91B3002A17DB9B0003F10A
:10117000804303F5B8431A6822F4804222F07002DB
:1011800092B282F4805242F4004242F080021A602D
:10119000124B1B689B699847002010BD9B0003F110
:1011A000804303F5B8431A6822F4E04222F040027B
:1011B00092B282F0100242F4004242F080021A60C1
:1011C000E6E70220E9E70220E7E70220E5E7022060
:1011D000E3E700BF04150020E400002028150020EC
:1011E00008B5064B1A68537A43F020035372044B38
:1011F0001B68DB699847002008BD00BF041500206C
:1012000028150020054B1B685A8A10B10868104445
:10121000704789888A1A1A82704700BF0415002017
:1012200008B50C4B93F82C10002000F025FD0A4B5C
:101230001B68187A082804D0092814BF0020012050
:1012400008BD064B4FF480521A80054B10221A80BD
:10125000F2E700BF600000200415002032150020D6
:101260003415002070B582B0904BD3F8503C904AB2
:101270001268117A092916D18D4B1B6801221A7246
:10128000DA88002A40F08F805C781A7812F07F02AA
:1012900050D1621E082A51D8DFE802F03E50365085
:1012A00028505050230099B2824B0B445B001C889D
:1012B000640004F1804404F5C044237813707C4D2D
:1012C0002B6862785A702E68A08800F009FD708043
:1012D0002E68208900F004FDB080A2892B68DA8096
:1012E000CAE7FFF743FE002830D027E093F9032038
:1012F000002A4EDB9A78002A4DD19A88002A4CD1D8
:101300009B7A1BB308222EE0DA78012A16D19B883B
:10131000A3B9FFF765FFE6E7DA78012A0ED19A88CC
:1013200062B95B7A13F0200F08D0634B5A60FFF765
:1013300069FED8E7012A1DD0022A20D05F4B1B6826
:101340005B6920469847032829D050BB574BD3F8F8
:10135000502C92B25A4B13445B0000221A60594B36
:1013600030221A800622524B1B681A72FFF758FF70
:1013700002B070BD0B2CE1D1FFF718FEB3E7012CD2
:1013800004D0032CDAD1FFF7D1FEACE7FFF73AFE29
:10139000A9E70822E7E70822E5E70822E3E70922B0
:1013A000E1E70822DFE75A78062A2ED0002A40F02B
:1013B00091805A882AB95A6822F47F42B2F5003FD8
:1013C0003CD03B4B1A683D4B1B681B6950789847D3
:1013D000032800F0BA80364B1B681A8A4FF6FF715B
:1013E0008A4200F08C80022800F0B480002A00F0CD
:1013F000B18093F900100029C0F2AF8003221A7265
:10140000314B4FF440521A80B0E71A7812F07F0F38
:10141000D7D19B78012B07D0022B0BD0032BD0D137
:10142000264B1B685B6A02E0244B1B68DB69002BC0
:1014300058D1C6E7214B1B681B6AF8E71A7812F0EF
:101440007F0204D19B88002BBBD1204B4AE0012AAC
:101450000ED11A4A126892690021587990470028E3
:10146000AFD1134B1B689B7A002BAAD0174B39E0E6
:10147000022AA6D15B7903F00F0113F0800F4FEA27
:10148000810202F1804202F5B842126814BF02F0F4
:10149000300202F440520E480078884291D913F08D
:1014A000700F8ED1002A8CD0084B1BE000500040FA
:1014B0000415002004300020FC1400202415002016
:1014C000023000203415002032150020090E0008DB
:1014D000E4000020082A15D11B7813F07F0F7FF459
:1014E00070AF304B304C2268002050829361984797
:1014F00023681A8A4FF6FF718A427FF477AF092278
:101500001A7233E70A2A7FF45CAF1A7802F07F027E
:10151000012A7FF456AF9A7A002A3FF452AF5A88D4
:10152000002A7FF44EAF5A6822F47F42B2F5803F22
:101530007FF447AF1D4A126892690021587990479D
:1015400000287FF43EAF1A4BCCE7174B1B680922EB
:101550001A720BE708221A7208E7D98801910198DC
:10156000824209D9019A1A82104A126892F82C20F4
:101570009A82FFF7A1FCF9E69142F5D90B49096877
:1015800091F82C10914203D90A4A00219170EBE79F
:1015900092FBF1F001FB1022002AE5D1054A01215E
:1015A0009170E1E7B90D0008041500202415002012
:1015B000E10D0008FC14002070B53A4B1C68237A3A
:1015C000052B05D0072B56D0032B01D0082263E052
:1015D000A369BBB1228A002A53D0A58A954228BFAD
:1015E0001546284698470646238A5B1B2382638A52
:1015F0002B446382002000F01FFB01462A46304640
:1016000000F01BFA238A002B3BD0274B4FF44052AB
:101610001A800021084600F01FFB244B30221A805C
:10162000238AA28A9A4230D923B11E4B1B68052215
:101630001A722EE01B4C236806221A721C4B1B6880
:101640009B68984723681B7A082B0CD0194BD3F85A
:10165000502C92B2184B13445B0000221A60134BBB
:1016600030221A8015E0104B4FF480521A800F4B35
:1016700010221A800DE00E4B1B68DB689847082289
:101680000AE0A28A238A9A42D4D8064B1B68032216
:101690001A72044B1B681A7A024B1B681A72FFF706
:1016A000BFFD70BD04150020321500203415002048
:1016B00024150020005000400230002010B50D4BD2
:1016C0001C7884B10C49002240F60F7E48F2800C51
:1016D0000B6803EA0E03134343EA0C0341F8043B8F
:1016E00001329442F4D140F08000044BC3F84C0C1A
:1016F00010BD00BFE4000020005C0040005000402E
:1017000008B5154B1A68137A022B05D0042B03D0A9
:10171000062B0CD0082204E0FFF7CEFB0E4B1B6813
:101720001A7A0D4B1B681A72FFF77AFD08BD5378C1
:10173000052B05D0094B1B689B6898470822F0E7EA
:10174000137813F07F0FF5D1D078FFF7B7FF044B74
:101750001B681B6A9847EDE704150020241500203C
:10176000281500207047000008B5064B1A1D1A60A6
:1017700002221A73044A1A6204495962136898478C
:1017800008BD00BF0415002060000020C00000203C
:1017900070B582B00023ADF80630974BD3F8443CC7
:1017A00099B2964A118013F4004F3CD01446944DE0
:1017B000944EA0E01446D2F8003C23F4E14323F019
:1017C00070031B041B0CC2F8003CFFF799FFD4F810
:1017D000003C23F4804323F040031B041B0C8A4A83
:1017E000128812F4805F18BF83F48053864A1288EF
:1017F00012F4005F18BF83F40053834A528812F03A
:10180000100F18BF83F010037F4A528812F0200F88
:1018100018BF83F0200343F4004343F080039BB2DE
:10182000754AC2F8003C02B070BD734CD4F8003C5D
:1018300023F070031B051B0DC4F8003CFFF712FDDD
:10184000D4F8003C23F4804323F040031B041B0C1A
:101850006D4A128812F4805F18BF83F480536A4A7D
:10186000128812F4005F18BF83F40053664A52884E
:1018700012F0100F18BF83F01003634A528812F061
:10188000200F18BF83F0200343F4004343F080038C
:101890009BB2594AC2F8003CC5E79A0002F1804267
:1018A00002F5B842116889B2ADF80610BDF806100D
:1018B00011F4004F40F09380BDF8063013F0800F14
:1018C00011D02A78930003F1804303F5B8431968D7
:1018D00021F4E14121F070010904090C1960013A79
:1018E00056F822309847444BD3F8443C9AB22280B1
:1018F00013F4004F97D0238803F00F032B70002BB5
:10190000CBD13D4AD2F8001C89B23F4B19801988CF
:1019100001F030015980198801F440511980D2F842
:10192000003C23F4804323F040031B041B0C83F48E
:10193000005383F0200343F4004343F08003C2F8D4
:10194000003C238813F0100F3FF434AF2A4BD3F838
:10195000003C9BB2ADF80630BDF8063013F4006FC2
:101960007FF463AFBDF8063013F4004FBBD0224CB8
:10197000D4F8003C23F070031B051B0DC4F8003C99
:10198000FFF71AFED4F8003C23F4804323F0400311
:101990001B041B0C1C4A128812F4805F18BF83F4CE
:1019A0008053194A128812F4005F18BF83F4005361
:1019B000154A528812F0100F18BF83F01003124A14
:1019C000528812F0200F18BF83F0200343F4004325
:1019D00043F080039BB2084AC2F8003C23E7116839
:1019E00021F070010905090D1160013B074A52F809
:1019F0002330984760E700BF0050004038150020B2
:101A0000301500203C00002032150020200000206E
:101A1000013201F1005101F54051490052100BD043
:101A2000023010F801CC10F8023C43EA0C2321F8F4
:101A3000043B0230013AF4D17047013201F1005108
:101A400001F540514900521005D00B68043120F8CF
:101A5000023B013AF9D17047014BC3F8440C70477F
:101A60000050004020F0070080B2024BC3F8500C39
:101A7000704700BF00500040800000F1804000F53A
:101A8000B840036823F4EC4323F07003194389B290
:101A900001607047800000F1804000F5B8400368A5
:101AA00023F4E04323F040039BB211F0100F18BF62
:101AB00083F0100311F0200F18BF83F0200343F4CC
:101AC000004343F0800303607047800000F18040D2
:101AD00000F5B840036823F4804323F070039BB201
:101AE00011F4805F18BF83F4805311F4005F18BFB6
:101AF00083F4005343F4004343F0800303607047D2
:101B0000800000F1804000F5B840006800F030002F
:101B10007047800000F1804000F5B840036823F46E
:101B2000E04323F040039BB283F0300343F40043CF
:101B300043F0800303607047800000F1804000F5AF
:101B4000B840036823F4804323F070039BB283F40E
:101B5000405343F4004343F0800303607047800028
:101B600000F1804000F5B840036823F4F8731B05CA
:101B70001B0D43F4004343F0800303607047800073
:101B800000F1804000F5B840036813F4804F09D09D
:101B9000036823F0F0031B051B0D43F4404343F09F
:101BA000800303607047800000F1804000F5B8407A
:101BB000036813F0400F09D0036823F0F0031B05FE
:101BC0001B0D43F4004343F0C00303607047000063
:101BD000074BD3F8503C9BB203EBC00000F1005020
:101BE00000F540504000490849000160704700BFBF
:101BF00000500040064BD3F8503C9BB203EBC000B2
:101C0000044B03445B00490849001960704700BF5A
:101C10000050004004300020064BD3F8503C9BB2EB
:101C200003EBC00000F1005000F540504000008878
:101C3000704700BF00500040054BD3F8503C9BB2AA
:101C400003EBC000034B03445B001888704700BFE0
:101C50000050004004300020054BD3F8503C9BB2AC
:101C600003EBC000034B03445B001960704700BFE7
:101C700000500040023000200E4BD3F8503C9BB285
:101C800003EBC0000C4A024452003E290BD94B0919
:101C900011F01F0F04BF03F1FF339BB29B0243F40B
:101CA00000431360704701F0010303EB51018B0205
:101CB000F7E700BF0050004006300020064BD3F885
:101CC000503C9BB203EBC000044B03445B0018681C
:101CD000C0F30900704700BF0050004006300020EC
:101CE00040BA80B270470000054B0020C3F8440C96
:101CF0004FF43F4203490A80C3F8402C704700BFAD
:101D0000005000402C15002070B50E4600F07F05F5
:101D10002846FFF7D3FF04462846FFF78DFF01460C
:101D200022463046FFF789FE204670BD8AB1013158
:101D300001EB42024FF0000C030FB0F1204F34BF13
:101D40003033373301F8013C000101F802CB9142F6
:101D5000F2D1704730B583B001210420FEF77EFE3A
:101D60004FF4C053ADF8043003258DF80650182306
:101D70008DF8073001AC21460C48FEF7B7FD012174
:101D80007C20FEF76BFE4FF40073ADF804308DF845
:101D9000065014238DF8073021460548FEF7A6FDAE
:101DA00001212020FEF75AFE03B030BD000801409B
:101DB0000014014008B50120FEF7F4FD01214FF4A5
:101DC0000000FEF759FE08BD30B583B04FF4A060A7
:101DD000FEF78AFC14238DF8043000238DF80530BB
:101DE0008DF8063001258DF8075001AC2046FEF72E
:101DF00085FC2A238DF804308DF805502046FEF727
:101E00007DFC03B030BD000008B528B14FF400716F
:101E10000448FEF7C4FD08BD4FF400710148FEF709
:101E2000BCFDF8E70014014038B50B4BD3F8E807C8
:101E3000D3F8F037C01800D138BD074BD3F8EC57B2
:101E4000064C08222146FFF771FF042204F110011D
:101E50002846FFF76BFFEFE700F0FF1F06000020AA
:101E60007047FEE7FEE7FEE7FEE770477047704702
:101E7000704708B500F008F808BD08B54FF4802099
:101E8000FEF72EFD08BD000000B589B0684BD3F801
:101E9000443C9BB2674A13801388674A12881340F8
:101EA00013F4007F58D1634B1B88634A1288134098
:101EB00013F4004F5DD15F4B1B885F4A12881340BB
:101EC00013F4806F07D05A4B4FF6FF32C3F8442CFF
:101ED0005A4B5B689847574B1A88574B1B881A40D8
:101EE00012F4005F04D0524A4DF6FF71C2F8441C50
:101EF000504A1288134013F4805F3DD14D4B1B882C
:101F00004D4A1288134013F4006F0AD04C4B1B78D3
:101F1000002B3AD000F0E2F9454B4FF2FF72C3F8C4
:101F2000442C444B1B88444A1288134013F4807F8E
:101F30000FD03F4B4FF6FF62C3F8442CD3F8483C18
:101F400013F4004F25D13B4B00225A60072000F0CC
:101F50001FFA09B05DF804FB354B4FF6FF52C3F88A
:101F6000442C344A93780133DBB29370FEF7CFF8F8
:101F700099E7FFF70DFC9EE72D4B4EF6FF72C3F875
:101F8000442C002000F004FAB8E7022000F000FA28
:101F9000C2E7284B5A6801325A605B68032BD5D9D7
:101FA000234BD3F8403C13F00803CFD1204AD2F89A
:101FB000402C92B21F498A601A46224850F8041BEE
:101FC00089B20DF1200C0CEB820C4CF8201C013274
:101FD000082AF3D1174A916841F001019160916894
:101FE00089B21348C0F8401C916821F0010191604A
:101FF000926892B2C0F8402C0146D1F8442C12F4F9
:10200000806FFAD00A4A4FF6FF31C2F8441C0D49DE
:1020100008AA02EB830252F8202C92B241F8042B5A
:102020000133082BF4D1034B00225A608EE700BF26
:1020300000500040381500202C15002060000020C2
:10204000E6000020005C0040034B9B7A13B1034B79
:1020500005221A60704700BF081500207015002087
:10206000014B04221A60704770150020044B1B7846
:10207000202B00D07047024B00221A70FAE700BFF5
:102080004415002070470000212816D0202824D1B4
:10209000134B1B681B7803F07F03212B18D1114BC6
:1020A00020221A70104B10B50D4A1268936100245B
:1020B000548220469847204610BD094B1B681B7868
:1020C00003F07F03212B01D1084BECE7022070477E
:1020D000044B20221A70022070470220704700BF74
:1020E0000415002044150020452100082D2100087A
:1020F000084B1B681B7803F07F03212B01D00220C3
:102100007047022804D0223818BF012040007047D1
:10211000002070470415002029B9012894BF002031
:1021200001204000704702207047000008B10348BA
:102130007047034B1B6808221A8270475800002022
:102140000415002008B103487047034B1B680822A0
:102150001A827047580000200415002010B5FFF7C0
:1021600063FE054B1B6800249C7200F09BF8FFF790
:10217000BBFD024B1C6010BD041500207015002033
:1021800010B5334B1B6800249C72324AD2795A72C4
:10219000DC722046FFF766FC4FF400712046FFF723
:1021A0006BFC10212046FFF775FC40212046FFF70D
:1021B00021FD80212046FFF70BFD2046FFF7CFFCD5
:1021C000254B93F834102046FFF756FD2046FFF7C5
:1021D000B3FC21460120FFF74FFCC0210120FFF78F
:1021E000F7FC20210120FFF755FC21460120FFF7D5
:1021F0006CFC4FF4C0610220FFF73EFC4FF480718D
:102200000220FFF7E5FC21460220FFF75EFC2021BB
:102210000220FFF73FFC21460320FFF72DFC4FF47F
:1022200088710320FFF7E6FC40210320FFF724FD1F
:102230004FF440510320FFF748FC21460320FFF7ED
:1022400029FC2046FFF73AFA044B01221A6010BD20
:1022500004150020DC6300085800002070150020E1
:1022600008B50249FEF7CEFF08BD00BF9000002070
:1022700008B50249FEF7C6FF08BD00BF9800002060
:1022800008B5064B1B68DB78032B05D8044901EB26
:10229000C301FEF7B7FF08BD0020FCE704150020CE
:1022A000A000002070B50120FFF7AEFD094D01230D
:1022B000C5F8403C084E00243480C5F8404C204608
:1022C000FFF7CAFB4FF4E0533380C5F8403C20468B
:1022D00070BD00BF005000402C15002010B4214BF1
:1022E000D3F8400C80B220490023204C51F8042B35
:1022F00092B244F823200133082BF7D140F48062D6
:10230000184BC3F8402C42F00102C3F8402C20F0D7
:10231000010084B240F48060C3F8400C1A46D2F841
:10232000443C13F4806FFAD00E4B4FF6FF32C3F8E3
:10233000442C0D4900230D4850F8232092B241F857
:10234000042B0133082BF7D144F48164054AC2F809
:10235000404CD2F8403C9BB243F00403C2F8403CEE
:1023600010BC704700500040005C00404815002041
:10237000064BD3F8401C4FF6FB720A40C3F8402CC2
:102380004FF43F42C3F8402C704700BF005000405C
:1023900008B507281CBF364B83F82000344B93F850
:1023A0002030052B5ED8DFE803F003121B233343F4
:1023B0002F4B5B6A23B12E4B052283F820200EE0C1
:1023C000FFF7D6FF2A4B062283F8202007E0FFF70D
:1023D000CFFF274B042283F8202001225A6208BD38
:1023E000234B022283F82120032283F82020F6E7E2
:1023F0001F4A92F82130013BDBB282F8213092F87B
:102400002130002BEBD11346042283F82020E6E78D
:10241000184AD2F8403C9BB243F01003C2F8403C4B
:10242000134B052283F820200A2283F82120D6E7C7
:102430000F4A92F82130013BDBB282F8213092F84A
:102440002130002BCBD10B4AD2F8401C4FF6EF7352
:102450000B40C2F8403C064B062283F820200022A5
:102460005A62BCE7024B062283F82020B7E700BF80
:10247000481500200050004000230B8070474FF2A9
:1024800001030B8070474FF470430B80704708B511
:1024900002220C210120FEF707F800220921012069
:1024A000FEF702F800220A210120FDF7FDFF0022BD
:1024B0000F210120FDF7F8FF00220E210120FDF77A
:1024C000F3FF00220D210120FDF7EEFF00220B217A
:1024D0000120FDF7E9FF08BD38B50546084614465A
:1024E0000B4903F073FD214603F024FE0446284601
:1024F00003F014FD0546214603F01AFF30B92946C2
:10250000204603F059FC03F027FF38BD0120FCE70B
:10251000001B374C38B50D461B4B07221A804FF471
:10252000A9725A8000229A80C3F80600C3F80A10E4
:1025300016490A601846FDF7EBFD4FF4FA60FDF707
:10254000D9FF124C23681BB9FEF708F80028F9D010
:102550000E4B1B6893B10E4B1B886D080335AB42C5
:102560000ED10B4B5B88012B0CD1094B9B88B3F52B
:10257000A97F01D1074802E0002000E0002038BD1B
:102580000020FCE70020FAE7F40C0020E80400201B
:10259000F4040020FA04002008B5074B04221A8036
:1025A0004FF480725A809880D980044A00211160CB
:1025B0001846FDF7ADFD08BDF40C0020E80400202E
:1025C000054B064ADA63064903F13C0243F8041B53
:1025D0009342FBD1704700BF74150020A086010014
:1025E0007F2400082DE9F041051D4688BF4C0123DA
:1025F00024F8023B4FF00208BC4F4EE06B88062BDC
:1026000003D04FF20203638030E0B94B5B6AA11C38
:10261000281D98472AE06B88062B03D04FF202034F
:10262000638032E3B24BDB6AA11C281D98472CE380
:102630006B88062B03D84FF20203638016E02989CA
:10264000063B01F0010202EB5102934203D04FF22C
:10265000020363800AE0A64B1B6AA11C281D984751
:1026600004E0A34B9B6AA11C281D9847A388013353
:102670009BB2A3802A8822803A881A443A80013E7D
:10268000B6B2002E00F0FE826288002A40F0FA8284
:102690006A8805EB420504EB4304A4F804802B8808
:1026A000013B702B00F2EA8201A252F823F000BF36
:1026B000C12800087D2C00087D2C00087D2C000816
:1026C0007D2C00087D2C00087D2C00087D2C000846
:1026D0007D2C00087D2C00087D2C00087D2C000836
:1026E0007D2C00087D2C00087D2C00087D2C000826
:1026F000BF2A0008D92A0008F32A00080D2B000879
:10270000F92B0008132C00087D2C00087D2C0008F4
:102710007D2C00087D2C00087D2C00087D2C0008F5
:102720007D2C00087D2C00087D2C00087D2C0008E5
:102730007D2C00087D2C00087D2C00087D2C0008D5
:102740007D2C00087D2C00087D2C00087D2C0008C5
:102750007D2C00087D2C00087D2C00087D2C0008B5
:102760007D2C00087D2C00087D2C00087D2C0008A5
:102770007D2C00087D2C00087D2C00087D2C000895
:102780007D2C00087D2C00087D2C00087D2C000885
:102790007D2C00087D2C00087D2C00087D2C000875
:1027A0007D2C00087D2C00087D2C0008FD250008EC
:1027B000312600087D2C00087D2C00087D2C0008A7
:1027C0007D2C00087D2C00087D2C00087D2C000845
:1027D0007D2C00087D2C00087D2C00087D2C000835
:1027E0007D2C00087D2C00087D2C00081726000891
:1027F000632600082D2C00087D2C00087D2C000885
:102800007D2C00087D2C00087D2C00087D2C000804
:102810007D2C00087D2C00087D2C00087D2C0008F4
:102820007D2C00087D2C00087D2C000875280008F0
:102830009B2800087D2C00087D2C00087D2C0008BA
:102840007D2C00087D2C00087D2C00087D2C0008C4
:102850007D2C00087D2C00087D2C00087D2C0008B4
:102860007D2C00087D2C00087D2C0008472C0008DA
:10287000632C00086B88042B03D04FF202036380A3
:10288000F4E6EB881BB94FF202036380EEE6184BC7
:10289000DB69A11C281D9847E8E66B88042B03D848
:1028A0004FF202036380E1E6EB881BB94FF20203AB
:1028B0006380DBE60E4B9B69A11C281D9847D5E67B
:1028C000FFF77EFE0A4B0B4903F13C0243F8041B61
:1028D0009342FBD1064B084A9A63002363806B88BE
:1028E000062B0BD04FF202036380BFE6F40C0020EE
:1028F000741500208724000879240008A8688A4BF2
:10290000D863AB88232B00F2D680DFE813F02400D5
:102910004300D40063007F00D400D400D400D4006E
:10292000D400D400D400D400D400D400D4008B0050
:10293000D400D400D400D400D400D400D400D400F7
:10294000D400D400D400D400D400D400D400D400E7
:102950009B00AE00C10003F0E1FA01F069FE724B8A
:10296000724A1A60724A9A60724959607249D96013
:102970001A61724A5A61724A1A62724A5A62724AF9
:102980009A62724ADA62724A9A61724ADA61724AE9
:102990001A636BE603F0C2FA01F04CF9624B6F4A1E
:1029A0001A606F4A5A606F4ADA606F4A5A616F4A1A
:1029B0009A636F4A1A626F4A5A626F4A9A626F4A02
:1029C000DA626F4A9A616F4ADA616F4A5A636F4AF4
:1029D0001A634BE603F0A2FA00F00EFA524B6C4A6F
:1029E0001A606C4A5A606C4A9A606C4ADA606C4AA7
:1029F0009A636C4A1A626C4A5A626C4A9A626C4ACE
:102A0000DA626C4A9A616C4ADA612FE603F0C2F826
:102A1000454B6A4A1A606A4A5A606A4A1A626A4AA6
:102A20005A6223E603F07AFA02F0D2F93E4B674A83
:102A30001A60674A9A60674A5A60674A9A61674AA9
:102A4000DA6113E603F06AFA012102F0A9FD364BC0
:102A5000634A9A60634A1A62634A5A62634A9A6195
:102A6000634ADA61634A5A6300E603F057FA0221C7
:102A700002F096FD2C4B5A4A9A605A4A1A625A4AF8
:102A80005A625A4A9A615A4ADA615A4A5A63EDE5D9
:102A900003F044FA032102F083FD234B504A9A606D
:102AA000504A1A62504A5A62504A9A61504ADA6150
:102AB000504A5A63DAE54FF470436380D6E56B8879
:102AC000022B03D04FF202036380CFE5164B1B6845
:102AD000A11C281D9847C9E56B88022B03D04FF233
:102AE00002036380C2E5104B9B68A11C281D984718
:102AF000BCE56B88022B03D04FF202036380B5E57F
:102B0000094B5B68A11C281D9847AFE56B88022B19
:102B100003D04FF202036380A8E5034BDB68A11CDE
:102B2000281D9847A2E500BF74150020F544000851
:102B300001450008A9450008114600081D46000887
:102B4000A94600080947000881470008DD4700083A
:102B50008D480008CB48000809490008993B000847
:102B6000A53B0008153C0008213C000889400008EE
:102B7000ED3C00084B3D0008C93D0008DD3D000864
:102B8000753C0008AD3C0008A93E0008153F000850
:102B9000A12E0008AF2E0008BD2E000879320008D3
:102BA0009D320008E52F0008B9300008C93100083F
:102BB000392F00080D32000843320008715C00080C
:102BC000395C0008855C0008095D0008E94D0008D3
:102BD000AD4E0008354E0008B94E00082B4F0008D6
:102BE000C5550008BB5900085D5900082558000864
:102BF000C5560008115A00086B88022B03D04FF20B
:102C00000203638032E5224B1B69A11C281D9847F3
:102C10002CE56B88022B03D04FF20203638025E57D
:102C20001B4B5B69A11C281D98471FE56B880C2B6B
:102C300003D04FF20203638027E0154B1B6BA11CEE
:102C4000281D984721E0EB8801335B0805D0104B25
:102C50005B6BA11C281D984708E54FF202036380B7
:102C600004E56B88022B03D04FF202036380FDE47E
:102C7000074B9B6BA11C281D9847F7E44FF470434A
:102C80006380F3E40348FDF743FABDE8F08100BF39
:102C900074150020F40C0020044B1B681A68196896
:102CA000891A8142FBD47047041000E0A82C000868
:102CB00008B503220B210120FDF7F6FB00220D21B0
:102CC0000120FDF7F1FB044B4FF400521A614FF461
:102CD00000621A6108BD00BF000C014010B5FFF78B
:102CE000E7FF01220B211046FDF7DEFB0F4B4FF4EF
:102CF00000625A613220FDF727FCFFF7D9FF4FF43D
:102D0000FA70FDF7F7FB094CA36813F4006F03D1C9
:102D1000FDF724FC0028F7D0044B9B6813F4006FE8
:102D20004FF2110018BF002010BD00BF000C014081
:102D300038B50D46084C206008236360204600F03B
:102D4000C5FA256010236360204600F0BFFA606B6F
:102D5000FFF7A2FF002038BDB415002070B506466D
:102D60000D460B4CC823236008236360204600F007
:102D7000ADFA102363602660204600F0A7FA2560B4
:102D8000204600F0A3FAA06BFFF786FF002070BD7D
:102D9000B415002038B505460B4CE8232360082302
:102DA0006360204600F092FA25601023636020469D
:102DB00000F08CFAA06BFFF76FFF204600F0C0FA1E
:102DC000206880B238BD00BFB415002010B5094C92
:102DD000206008236360204600F078FAE06BFFF77C
:102DE0005BFF10236360204600F0AAFA206880B2DF
:102DF00010BD00BFB415002038B50546204C214B4E
:102E0000E3626FF47003A3611F4BE361103323622D
:102E1000043B6362083BA36202464FF081411020ED
:102E2000FFF75AFBA0602A4618491320FFF754FB0E
:102E3000E0602A4616491020FFF74EFB20612A4623
:102E400014491120FFF748FB60612A46124900200F
:102E5000FFF742FBA0632A464FF085410020FFF7B1
:102E60003BFB20642A460D490020FFF735FBE06359
:102E70002A464FF084410020FFF72EFB606338BDE7
:102E8000B4150020041000E0040C014000001041C3
:102E9000000040400000C0400000164300003042E7
:102EA00010B50C46FFF704FF0023238010BD10B5BA
:102EB0000C46FFF713FF208010BD000038B50D460B
:102EC000FFF7F6FE01220B211046FDF7EDFA194C33
:102ED0004FF4006363610A20FDF736FB01220D21E8
:102EE0001046FDF7E1FA4FF4005363613220FDF71D
:102EF0002BFB03220B210120FDF7D6FA4FF4FA70C9
:102F0000FDF7F8FAA36813F4006F03D1FDF726FB71
:102F10000028F7D06420FDF717FBFFF7C9FE054B2B
:102F20009B6813F4006F4FF2110318BF00232B802E
:102F300038BD00BF000C01402DE9F84F8A460768F4
:102F4000436807EB030B50234B8000238B80B9B2FF
:102F50004520FFF7EDFE4FF0800801234FF0620996
:102F600013E0B8F1010F0AD90AF10A050024484616
:102F7000FFF72CFF25F8020B0134A642F7D847448F
:102F80005046FDF7C5F8034640BBBB4521D9ABEB26
:102F90000702904528BF90464FEA5806721DAAF8CE
:102FA0000020CAF80670002BDBD0B8B2FFF7F2FEA3
:102FB000AAF80A00B8F1030FE1D90AF10C050124BF
:102FC0004846FFF703FF25F8020B0134A642F7D865
:102FD000D5E70023AAF80030BDE8F88F4FF22203AE
:102FE000F8E700002DE9F84F8A4607684368002B90
:102FF0003AD000F1080623F00108B8443C461F44CB
:103000002C4D4FF0CC0932E03188A0B2FFF7A6FE7C
:1030100003460234BC4201D0023640B3AAF8003065
:10302000BDE8F88FB4F5803F3678224D2CBFC4231D
:10303000C0232B6008236B60284600F047F910235B
:103040006B60A3B22B60284600F040F914F0010F2A
:1030500008BF3602174C2660204600F037F9A06BF7
:10306000FFF71AFE0023D9E70023D7E702363346DD
:103070004445D7D0B4F5803FC6D3B6F800B0C5F804
:10308000009008236B60284600F020F910236B6045
:10309000A3B22B60284600F019F9C5F800B0284605
:1030A00000F014F9A86BFFF7F7FD0234BC42DDD144
:1030B0000023B3E7B41500202DE9F84F89460468D2
:1030C0004668002E4FD001F1040800253D4F4FF017
:1030D000EC0B4FF0080A08E0A0B2FFF75BFE28F8FF
:1030E000020B02350234AE421BD9012E1BD9B4F5B6
:1030F000803FF1D3C7F800B0C7F804A0384600F00D
:10310000E5F8A3B23B6010237B60384600F0DEF8A0
:10311000B86BFFF7C1FD384600F012F9386880B28D
:10312000DDE72E461FE0B4F5803F2CD3254EE42387
:10313000336008237360304600F0C8F8A3B23360F0
:1031400010237360304600F0C1F8B06BFFF7A4FDA8
:10315000304600F0F5F814F0010F10D03368DBB200
:10316000A8F800306E1C0023A9F8003006F0010317
:1031700003EB56030233A9F80230BDE8F88F114B78
:103180001B681B0AEBE70F4EE023336008237360D4
:10319000304600F09BF8A3B23360102373603046D2
:1031A00000F094F8B06BFFF777FD304600F0C8F8F8
:1031B00014F0010F02D03368DBB2D1E7014B1B687A
:1031C0001B0AF9E7B41500202DE9F04105468846B1
:1031D0004668044634F80A7B39464520FFF7A8FDC7
:1031E00029893846FFF7BAFD022E0AD0422734F863
:1031F000021B3846FFF79CFDC4F108033344DD424F
:10320000F5D10023A8F80030BDE8F08110B50C46D8
:103210000388A3F14202052A0FD84288022A03D06C
:103220004FF240030B800BE08188D8B2FFF780FD9E
:10323000002323800223638002E04FF470430B805D
:1032400010BD10B50C460388A3F16202052A0FD801
:103250004288022A03D04FF240030B800BE0D8B221
:10326000FFF7B4FDA080002323800323638002E0E6
:103270004FF470430B8010BD38B50D46064C082343
:1032800023606360204600F021F8206CFFF704FD06
:1032900000232B8038BD00BFB415002010B50C46AC
:1032A000FFF71CFD208010BD8269C369012424053D
:1032B0001D68154025431D6070478269C369062457
:1032C00024051D68154025431D60704772B6FEB584
:1032D000476806682025ED1BAE40FFF7E5FF026A50
:1032E00020231B0213608268C36A1C681D682D1BA3
:1032F0009542FBD4361C04D4026A20231B021360BF
:1033000003E0426A20231B021360C268C36A1C6880
:103310001D682D1B9542FBD4426A20231B021360BB
:103320000269C36A1C681D682D1B9542FBD4760098
:10333000013FD4D162B6FFF7C0FFFEBC01BC00471D
:1033400072B6FEB547680026FFF7B7FF026A202372
:103350001B0213608268C36A1C681D682D1B95429E
:10336000FBD4426A20231B0213604269C36A1C68B3
:103370001D682D1B9542FBD4826A01231268520BF3
:103380001A40760016434269C36A1C681D682D1BEB
:103390009542FBD4013FD9D162B60660FEBC01BCA8
:1033A000004708B500220B210120FDF77DF800221F
:1033B0000D210120FDF778F800220F210120FDF7F3
:1033C00073F800220E210120FDF76EF8002008BDE1
:1033D0002DE9704F86B005460391904604934B1E2D
:1033E000012202FA03F301935B4B9C6814F48044BE
:1033F000FBD1594E4FF4004333614FF4005AC6F8E5
:1034000010A0DFF85891D9F80000FFF745FCC6F886
:1034100014A0D9F80000FFF73FFCB368C3F3803B6A
:1034200015F0010F00F087804FF4004232614A4EE0
:103430004FF4005AC6F810A0DFF82091D9F8000028
:10344000FFF72AFCC6F814A0D9F80000FFF724FC07
:10345000B368C3F380334BEA4303029315F0020FC2
:103460006ED04FF4004232613B4E4FF40059C6F823
:1034700010903A4D2868FFF70FFCC6F814902868A2
:10348000FFF70AFC029B002B0CBF4FF0200A4FF005
:10349000070A039B1D46002B57D0A1464FF4005B43
:1034A000CDF814A0A246B368C3F3803343EA4A0AB6
:1034B000019B13EA080F4FF4004314BF336173619B
:1034C0004FEA4808C6F810B0244C2068FFF7E4FB28
:1034D000C6F814B02068FFF7DFFB09F10109A94520
:1034E000E1D15446DDF814A01B4B4FF400425A6161
:1034F000039B9A4518D9184E4FF40059B368C3F38B
:10350000803343EA4404C6F81090DFF85080D8F8BE
:103510000000FFF7C1FBC6F81490D8F80000FFF7D1
:10352000BBFB0135AA45E9D1049B03B11C6002989D
:1035300006B0BDE8708F084B4FF400425A6176E741
:10354000054B4FF400425A618EE7034B4FF40042A3
:103550005A612546CFE700BF000C0140F815002056
:103560002DE9704382B00646062400254FF020095D
:103570000DF104082B46324649462846FFF728FF3E
:1035800043462A4607210320FFF722FF013801287E
:1035900006D8013CEED14FF6FF7002B0BDE8708353
:1035A0000020FAE770B582B0984C23886FEA834315
:1035B0006FEA93439BB22380A38823F001031B048B
:1035C0001B0CA380043804F55444A36813F4804F03
:1035D000FBD18F4B4FF400451D614FF400541C612B
:1035E0005C6100BF00BF00BF9E685D611C615C61E3
:1035F00000BF00BF00BF9D681C615C61854C0194E9
:10360000854D01AC6C660224EC655C6844F00044B6
:1036100044F400045C60AB6D43F00103AB652C46E1
:10362000E36D002BFCD1794C238913F0800FFBD183
:10363000794CA36D23F00103A365A4F5744463687A
:1036400023F0004323F400036360A36813F4804F66
:10365000FBD16F4B4FF400451D614FF400541C61CA
:103660005C615D6100BF00BF00BF1C615C611D61EA
:1036700000BF00BF00BF1C615C614FEA3040019099
:10368000654C01A860660220E065586840F0004083
:1036900040F400005860A36D43F00103A365204689
:1036A000C36D002BFCD15948038913F0800FFBD167
:1036B0005948836D23F001038365A0F57440436886
:1036C00023F0004323F400034360836813F4804F26
:1036D000FBD14F4B4FF4004018614FF4005018617C
:1036E000586100BF00BF00BF1861586100BF00BF34
:1036F00000BF186158614FF0070E4FF0630C4FF494
:1037000000441CF0400F14BF1C615C614FEA4C0C7C
:1037100018615861BEF1010EF3D1104600F09CFD16
:1037200080B23B4A936813F4804FFBD1384B4FF47F
:1037300000421A614FF400521A615A6100BF00BF83
:1037400000BF1A615A6100BF00BF00BF1A615A6111
:10375000072143224FF400454FF4005412F0400F6C
:1037600014BF1D615D6152001C615C610139F5D1BE
:10377000274A936813F4804FFBD1254B4FF4004147
:1037800019614FF400521A615A61596100BF00BFBC
:1037900000BF1A615A61196100BF00BF00BF1A6102
:1037A0005A61002200921C49C1F864D00222CA6505
:1037B0005A6842F0004242F400025A608B6D43F0B6
:1037C00001038B650A46D36D002BFCD10F4A138988
:1037D00013F0800FFBD1104A936D23F00103936522
:1037E000A2F57442536823F0004323F400035360AE
:1037F000A2F5544293889BB243F00103938013884F
:10380000C3F30D03138002B070BD00BF0038004049
:10381000000C0140D67FA69A0000024030B583B06C
:103820000546002401942346224607210320FFF782
:10383000CFFD01AB224607210320FFF7C9FD019B05
:10384000C3F380132B80033818BF4FF0FF3080B2D2
:1038500003B030BD2DE9704783B082468946052408
:103860004FF00008202501AE0AE03346424607210A
:103870000320FFF7ADFD013801281BD8BCB1013C86
:103880004346524629464046FFF7A2FD3346D9F843
:10389000002029460220FFF79BFD01380128E4D8CB
:1038A000002CECD14FF6FF7003B0BDE870874FF6E7
:1038B000FF70F9E70020F7E72DE978478146884651
:1038C0000624002620254FF0C04A33464A462946A2
:1038D0003046FFF77DFD4346524629463046FFF706
:1038E00077FD28B1013CF0D14FF6FF70BDE8788735
:1038F0000020FBE770B584B00E4615460390002308
:103900000293019302A91E48FFF7D6FF044610B1A7
:10391000204604B070BD01A91A48FFF7CDFF044648
:103920000028F5D103A91848FFF794FF044638B9D9
:10393000012E0ED0022E18D0042E1BD04FF20204FE
:1039400002A91248FFF786FF01A90F48FFF782FF7F
:10395000DEE70F48FFF704FE0446002CF0D12946AD
:103960000748FFF7A9FF0446EAE70A48FFF7F8FD12
:103970000446F2E70848FFF7F3FD0446EDE700BF11
:10398000A69B167CA69B367CA69A367CA69A167CAD
:1039900000000188000001A00000018070B584B023
:1039A0000E461546039000230293019302A91E4878
:1039B000FFF782FF044610B1204604B070BD01A994
:1039C0001A48FFF779FF04460028F5D103A91848E3
:1039D000FFF740FF044640B102A91648FFF73AFF3F
:1039E00001A91348FFF736FFE6E729461148FFF71C
:1039F00031FF04460028EFD1012E06D0022E09D057
:103A0000042E0CD04FF20204E6E70B48FFF7A8FDA6
:103A10000446E1E70948FFF7A3FD0446DCE7084850
:103A2000FFF79EFD0446D7E7A69B167CA69B367C37
:103A3000A69A367CA69A167C00000198000001B078
:103A40000000019030B583B005460C460023019379
:103A500001A91148FFF730FF034610B1184603B023
:103A600030BD21460D48FFF7F5FE03460028F5D18D
:103A70006B0103F47873C5F344100343084840EA2C
:103A8000C320FFF76DFD03460028E7D101A90348D5
:103A9000FFF7E0FE0346E1E7A69B167CA69A167C9C
:103AA000A603007C30B583B004460D460023019385
:103AB00001A91148FFF700FF034610B1184603B0F3
:103AC00030BD630103F47873C4F3441423430B48FB
:103AD00040EAC320FFF744FD03460028EED1294603
:103AE0000548FFF7E9FE03460028E7D101A904488D
:103AF000FFF7B0FE0346E1E7A69B167CA602007C1A
:103B0000A69A167C10B584B000230393029302A9F1
:103B10009520FFF7C7FF044610B1204604B010BD42
:103B2000029B23F4003343F0207343F0010302931C
:103B300002A99520FFF786FF04460028EDD103A9CE
:103B40001B20FFF7AFFF04460028E6D1039B23F4B8
:103B50008C43039303A91B20FFF774FF044600283E
:103B6000DBD14FF04063019301A94FF40C70FFF7D4
:103B700069FF04460028D0D101A99420FFF792FFE5
:103B800004460028C9D10023024A20211846FFF725
:103B90001FFCC2E76400004C10B50C46FFF701FCA7
:103BA000208010BD70B50D46FFF7FBFB01220B21F5
:103BB0001046FCF779FC164C4FF4006363616420F7
:103BC000FCF7C2FC01220D211046FCF76DFC01221E
:103BD0000F211046FCF768FC4FF4004363614FF47B
:103BE0000056266103220B210120FCF75DFC3220E8
:103BF000FCF7AAFC666101220D211046FCF754FC7B
:103C000001220F211046FCF74FFC00232B8070BDD2
:103C1000000C014010B50C46FFF774FF208010BD6A
:103C200010B50C46081DFFF7F9FD208003236380C3
:103C300010BD000010B584B0044602F08DFB019069
:103C40000023ADF80830ADF80A300123ADF80C3090
:103C5000ADF80E3001A8FCF7BDFA22464FF07C51BA
:103C60001820FEF739FC024B186004B010BD00BFED
:103C7000F815002010B50C464388042B03D04FF2F2
:103C80004000208010BD03881F2B06D8011D064868
:103C900040EA4350FFF7DEFDF3E7011DA3F12000EA
:103CA000FFF7D0FEEDE700BFA69A167C10B50C46D4
:103CB0004388042B03D04FF470430B8010BD008861
:103CC0001F2809D80431084B43EA4050FFF7F4FDA0
:103CD000208004236380F1E704312038FFF7E2FEFF
:103CE000208004236380E9E7A69B167C2DE97847B2
:103CF00089460668446834B300F108054FF00208AD
:103D00004FF0040A09E02A4651463046FFF746FEC6
:103D1000043C0436043594B188B9032CF3D8012C43
:103D200008D92A4641463046FFF738FE023C0236A3
:103D30000235F0E72A4601213046FFF72FFEA9F8A9
:103D40000000BDE878870020F9E72DE9704F8A462A
:103D5000D0F800804668A6B30C1D0025A9464FF098
:103D6000020B0BE0224604214046FFF7C3FD043559
:103D700008F104080434AE4218D9B8B9A4F8009088
:103D8000032EEFD8012E09D9224659464046FFF7A7
:103D9000B1FD023508F102080234ECE722460121A8
:103DA0004046FFF7A7FD237823800135AAF80000DD
:103DB00005F0010303EB55030233AAF80230BDE816
:103DC000708F35460020F1E710B50C4600F108026F
:103DD00041680068FFF7E6FB208010BD30B583B076
:103DE00004460D460368043B019301A92B48FFF7E5
:103DF00031FD20B14FF222032B8003B030BD284AA1
:103E0000936813F4804FFBD1254B4FF400401861A9
:103E10004FF400521A615A6100BF00BF00BF996899
:103E2000C1F3803158611A615A6100BF00BF00BF01
:103E30009868C0F3803041EA40011A615A615A68BB
:103E400042F0004242F400025A60A3F5544348F2A3
:103E500001429A811A46138913F0010FFBD0114BCE
:103E60009A8904229A811A46138913F0010FFBD014
:103E70000C4B9B890A4A536823F0004323F4000348
:103E800053600329B6D162682168284600F038F9EA
:103E90000028B2D04FF222032B80AEE7A69A367CE0
:103EA000000C01400038004038B50C464388042B14
:103EB0002CD1436805883DB1012D0FD0022D1AD0B9
:103EC0004B880020054606E01846FFF749FB63884B
:103ED000002818BF00252B44638019E00289042ABA
:103EE00002D04FF2020013E000F10A011846FFF77A
:103EF000B1FC0025EBE70289042A02D04FF2020050
:103F000006E004311846FFF7D7FCE0E74FF2020065
:103F1000208038BD2DE9704F84B00568436805EBFB
:103F200003080123039383680293D0F80CB0066959
:103F3000454571D24EF6602A4FF0000931E000216C
:103F40004FF60170FEF728FB03E04FF24300FEF747
:103F500023FB04B0BDE8708FFCF700FB00283BD1C9
:103F600003A94848FFF7A8FC014600283AD1039B63
:103F7000012B3CD102A91A20FFF764FD014600285D
:103F80003BD1019A31465846FFF70CFB0146002809
:103F900038D1FFF7B7FD0146002838D13544A84590
:103FA0003AD931462846FEF7B5FA01900028C6D026
:103FB0005046FCF79FFACDF80C9003AC2046FFF773
:103FC0002DFC01460028C0D1039B002BC4D1FCF777
:103FD000C5FA0028F2D0BFE700214FF6FE70FEF7C9
:103FE000DBFAB6E74FF24300FEF7D6FAB1E700215D
:103FF0004FF21200FEF7D0FAABE74FF24300FEF7A4
:10400000CBFAA6E74FF24300FEF7C6FAA1E74FF25C
:104010001100FEF7C1FA9CE7002303934EF66020DF
:10402000FCF768FA03AC2046FFF7F8FB014620BB1B
:10403000039B1BB9FCF792FA0028F4D0FCF78EFA28
:1040400080B903A90F48FFF737FC014680B9039BED
:10405000012B4FF0000114BF4FF212000846FEF78B
:104060009BFA76E700214FF6FE70FEF795FA70E7AF
:104070004FF24300FEF790FA6BE74FF24300FEF772
:104080008BFA66E7A69B767C10B5FFF78AF90122CA
:104090000D211046FCF708FA01220F211046FCF70B
:1040A00003FA0E4C4FF4004323614FF40053636155
:1040B00001220B211046FCF7F7F94FF4006363610E
:1040C0006420FCF741FA03220B210120FCF7ECF9F4
:1040D0006420FCF739FAFEF7DAF910BD000C014054
:1040E00000000000000000000000000000000000D0
:1040F00000000000000000000000000000000000C0
:10410000F0B58BB0800880000230089006919208CC
:1041100007928449CA680B691E688D68354300950B
:10412000012517686FF3000702972F43039757691C
:104130006FF3000704972F4305972D020A9500BFE0
:104140000A9D079FBD4200DD3D1C09957F1B079717
:104150006F000537078002305024069F10C00760AB
:10416000AD007F19069700BFAFF30080AFF300806A
:1041700002270430D060576011629761039C14607D
:10418000C0465F797F06FCD4C04680241C7320277C
:104190001F73A0241C74C046C046C0465C791F73C0
:1041A0001F74A4095D791F731F746D092C43009F50
:1041B0001F60059F57615768002FFCD1C046029FC2
:1041C0001760049F57611E60032C40D102270D1D0C
:1041D000D060576015629761039C14605F797F0619
:1041E000FCD4C04680241C7320271F73A0241C7499
:1041F000C046C046C0465C791F731F74A4095D7930
:104200001F731F746D092C43009F1F60059F57612A
:104210005768002FFCD1C046029F1760049F57616A
:104220001E60A4B9C046C046099F013F09979FD1AF
:1042300008980FB4FBF76CFF00280FBC07D1079F4D
:1042400007B17DE740400BB0F0BC02BC0847FF203F
:104250000BB0F0BC02BC0847F0B587B08908314FFD
:10426000FA683B691E68BD6835430095BF690697CB
:10427000012517686FF3000702972F4303975769CB
:104280006FF3000704972F43059700BFAFF300803B
:1042900002271062043097615F797F06FCD4802585
:1042A0001D7320271F73A0241C74C046C046C0463F
:1042B0005C791F731F741D7364085D791F731F740D
:1042C0002C436FF3C714009F1F60059F57619769C8
:1042D000002FFCD18025069F3F882F40FBD1049FF3
:1042E00057611E60592C08DD0139D1D180251D741C
:1042F000404007B0F0BC02BC084780251D74FF2079
:1043000007B0F0BC02BC0847167CA69B01840400E1
:104310000000808044000240040C01401460004012
:104320000838004008430008034601280BD04FF628
:10433000FF7290420AD04FF223004FF22202002B6C
:1043400018BF104670474FF2200070474FF221000F
:1043500070470000084906E0013A09D08B6803F471
:1043600080538342F8D0886800F480500522F5E736
:10437000003818BF01207047000C014008B50F4BF2
:104380004FF400521A6103220B210120FCF78CF834
:1043900000220D210120FCF787F802220C210120C8
:1043A000FCF782F800220F210120FCF77DF80022A3
:1043B0000E210120FCF778F8002008BD000C014018
:1043C00010B5094C00232360204600F058FB4FF441
:1043D00040632360204600F052FB044A936813F4C4
:1043E000805FFBD1002010BDFC150020000C0140B7
:1043F000F8B504460D4616461748046000F03FFB2A
:10440000CDB914F0800F21D1134C3388236020469E
:1044100000F035FB00232360204600F030FB80B223
:1044200040B12368002BF7D00B4B186810B180B255
:10443000FFF77AFFF8BD084F2B0C3B60384600F0C1
:104440001EFB3D60384600F01AFBDAE7024873882D
:10445000036000F014FBD7E7FC150020F8B5044614
:104460000E4615462248046000F009FBBEB9204BF9
:1044700000221A6014F0800F23D01C46204600F062
:10448000FEFA80B2D0B12368002BF7D0184B1A681F
:104490006A801868A8B180B2FFF746FF0DE0144F9C
:1044A000330C3B60384600F0EAFA3E60384600F0D4
:1044B000E6FADCE70E4B1B682B80F8BD0C4B1B6843
:1044C0006B800B4B00221A601C46204600F0D7FA86
:1044D00080B20028EED02368002BF6D0044B1A6877
:1044E0002A8018680028E8D080B2FFF71DFFE4E7B3
:1044F000FC15002010B50C46FFF740FF208010BDD2
:1045000070B50D4601220D211046FBF7CDFF0122AB
:104510000F211046FBF7C8FF224C4FF400562661CE
:104520000A20FCF711F866610A20FCF70DF84FF439
:10453000FA70FBF7DFFFA36813F4805F03D1FCF789
:104540000DF80028F7D0174B9B6813F4805F09D053
:10455000144B9B6813F4805F4FF2100318BF0023C5
:104560002B8070BD01220B211046FBF79DFF0D4BE8
:104570004FF400625A611920FBF7E6FF03220B217A
:104580000120FBF791FF4FF4FA70FBF7B3FF054CE6
:10459000A36813F4805FDBD1FBF7E0FF0028F7D0BE
:1045A000D6E700BF000C014038B50D46FFF7E6FE28
:1045B00001220B211046FBF777FF01220D21104647
:1045C000FBF772FF114B4FF400521A614FF4006277
:1045D0005A611920FBF7B8FFFFF7D0FE4FF4FA70CD
:1045E000FBF788FF094CA36813F4006F03D1FBF7B6
:1045F000B5FF0028F7D0054B9B6813F4006F4FF20E
:10460000110318BF00232B8038BD00BF000C0140F0
:1046100010B50C46FFF7D4FE208010BD10B50C4637
:1046200000230B8003234B80FFF794FEA08010BD76
:1046300030B585B0054601F08FFE01900123ADF83D
:104640000830ADF80A30ADF80C30ADF80E3001A8E6
:10465000FBF7C0FD0E4C0F4AA2620F4BE3620F49FD
:1046600021630F486062A0F55340F8382062043897
:10467000E06161610B49A160E26023612A464FF06D
:104680007C511820FDF728FF606005B030BD00BFE9
:10469000FC150020140C0140080C0140041000E03F
:1046A000040C0140100C01402DE9F84388460668CF
:1046B00044683CB300F108054FF4C2574FF4C459A5
:1046C00009E02A4631464846FFF792FE043C04368C
:1046D00004359CB190B9032CF3D8012C08D92A4693
:1046E00031463846FFF784FE023C02360235F0E7D9
:1046F0002A4631464FF4C050FFF77AFEA8F8000072
:10470000BDE8F8830020F9E72DE9F04788460768FF
:10471000466896B30D1D00244FF4CA594FF4CC5A85
:104720000AE02A4639465046FFF798FE043404371B
:104730000435A64216D9A8B9032EF2D8012E08D9FD
:104740002A4639464846FFF789FE023402370235C9
:10475000EFE72A4639464FF4C850FFF77FFE2B7823
:104760002B800134A8F8000004F0010303EB54038C
:104770000233A8F80230BDE8F08734460020F1E7A4
:10478000F8B506460D460168446800F1080214F0C9
:10479000030F0ED0E31D03446FF0050EAEEB000EC9
:1047A0004FF0000C0EEB030403F801CF14F0030FDD
:1047B000F8D14FF4C450FFF71BFE0746043C00D06D
:1047C00008B12F80F8BD04480C368663A408C46382
:1047D0001C3000F0DFF9F4E7FC1500202DE9F04F64
:1047E00083B00F4604680194436804EB0309502327
:1047F0004B8000238B8001264FF4806501F10A0372
:104800000093DFF8848008F11C0B1DE0524621461E
:104810004FF4CC50FFF722FE07F10E0A4FF4EC5391
:10482000C8F80030404600F02AF9C8F838A0C6EBB6
:104830009506C8F83C60584600F069F92C443846A3
:10484000FBF766FC0026D8B9A1450ED9A9EB0403F5
:104850009D4228BF1D466B0805333B80C7F80640C4
:10486000DDF800A0002EE0D0D0E73A4601994FF4E1
:10487000CA50FFF7F3FD00233B8003B0BDE8F08F83
:104880004FF22203F8E700BFFC15002010B50C46DC
:10489000B0F800C02CF4816323F00703B3F5025F86
:1048A00003D04FF470430B8010BD4388042B03D01A
:1048B0004FF240030B80F7E7021D00216046FFF72F
:1048C00097FD208002236380EEE710B50C46B0F818
:1048D00000C02CF4816323F00703B3F5065F03D017
:1048E0004FF470430B8010BD4388042B03D04FF26C
:1048F00040030B80F7E70A1D00216046FFF7AEFD7D
:10490000208004236380EEE72DE9F04F85B0056831
:10491000436805EB030883680293C3680193066943
:10492000454578D2A6F104094FEA99094EF6602A66
:10493000504F07F11C0B37E000214FF60170FDF7D7
:104940002BFE05B0BDE8F08FFBF708FE002842D132
:1049500003AA00214FF40650FFF780FD014600280E
:104960003FD1039B012B41D102AA00214FF41250E9
:10497000FFF73EFD014600283ED1224601994FF443
:10498000C450FFF735FD014600283AD10434BC631A
:10499000C7F83C90584600F0FDF8FFF711FD0146BE
:1049A000A0BB3544A84536D931462846FDF7B2FDAF
:1049B00004460028C0D05046FBF79CFDFFF7CAFC18
:1049C0000028C1D1FBF7CAFD0028BDD1FFF7C2FC0A
:1049D0000028F7D0B8E700214FF6FE70FDF7DCFDA8
:1049E000AFE74FF24300FDF7D7FDAAE700214FF2F2
:1049F0001200FDF7D1FDA4E74FF24300FDF7CCFD17
:104A00009FE74FF24300FDF7C7FD9AE74FF2110011
:104A1000FDF7C2FD95E74EF66020FBF76BFDFFF753
:104A200099FC30B9FBF79AFD18B9FFF793FC002801
:104A3000F8D0FBF793FD90B903AA00214FF406507C
:104A4000FFF70CFD014680B9039B012B4FF00001DD
:104A500014BF4FF212000846FDF79EFD71E70021DA
:104A60004FF6FE70FDF798FD6BE74FF24300FDF740
:104A700093FD66E7FC150020013AFDD17047FEB5B5
:104A800010270668F603C268A0231370C046426868
:104A9000FFF7F2FF0269527892090269527892098F
:104AA000151C826820231370C0464268FFF7E4FF9C
:104AB000026952789209026952789209C046C26826
:104AC00020231370760003D582688023137004E0DE
:104AD000C26880231370C046C0464268FFF7CCFF0F
:104AE0000269527892091643826820231370026982
:104AF000527892094268FFF7BFFF02695278920923
:104B0000013FDCD10660281CFEBC02BC0847F0B5A2
:104B100084682568C769C268A0231370802636029E
:104B20008022164336042E43C046C046026952789E
:104B300092092660111C4268002313800123066835
:104B40003688DE41FBD516882560D941E3D47E80C6
:104B5000C268A023137080263602802216433604D2
:104B60002E431D231B02134326604268138001233A
:104B700006683688DE41FBD5168825603E800437FE
:104B80000522FFF779FF026A013A0262C3D1F0BC45
:104B900002BC0847F0B584682568C7692CE0C26884
:104BA000A0231370802636028022164336042E433B
:104BB000266042687B881380012301680E88DE41ED
:104BC000FCD516882560C268A023137080263602A3
:104BD0008022164336042E43266042683B881380A9
:104BE000012301680E88DE41FCD516882560043754
:104BF000026A013A02621FD0C268A02313708026A5
:104C000036028022164336042E43C046C04602694F
:104C1000527892092660111C1C231B028022134328
:104C200042681380012306683688DE41FBD516886A
:104C30002560D941E0D4B2E7C268A0231370802672
:104C400036028022164336042E43C046C04602690F
:104C5000527892092660111C0023426813800123B8
:104C600006683688DE41FBD516882560D941E3D435
:104C7000F0BC02BC0847000038B568B1094B4FF4DE
:104C800080621A61074C4FF400552561064B186885
:104C9000FEF702F8656138BD024B4FF480625A613D
:104CA000F0E700BF000C01403C16002038B580241E
:104CB00001252846FFF7E0FF013CFAD10020FFF76D
:104CC000DBFF0020FFF7D8FF002038BD68B32DE9D7
:104CD000F8438946074600242646144D4FF40058F1
:104CE00019E016F0010F4FF4004314BF2B616B6104
:104CF0007B1EA34204BF4FF480632B61C5F8108074
:104D00000B4B1868FDF7C8FF7608AB68C5F8148030
:104D10000134BC4207D014F01F0FE2D1494651F8CC
:104D2000046B8946DDE7BDE8F8837047000C01405D
:104D30003C1600202DE9F04F83B00191224B4FF437
:104D400000425A6100283CD081460024274600F1E9
:104D5000FF3A1E46DFF874B01CE04FF48063336105
:104D60004FF40058C6F81080DBF80000FDF794FF00
:104D7000B368C3F3803305F01F0503FA05F52F432D
:104D8000C6F81480019B43F8047B0193002701348B
:104D9000A14516D0A5B2A245DFD04FF40058C6F801
:104DA0001080DBF80000FDF777FFB36805F01F0502
:104DB000C3F38033AB401F43C6F814801F2DE6D1E8
:104DC000E0E703B0BDE8F08F000C01403C16002086
:104DD00008B502464FF07E511020FDF77DFB014BD8
:104DE000186008BD3C16002010B50C4603220B21AC
:104DF0000120FBF759FB00220D210120FBF754FB9A
:104E000000220F210120FBF74FFB00220E21012081
:104E1000FBF74AFB00220A210120FBF745FB002299
:104E200009210120FBF740FB3220FBF78DFB00231B
:104E3000238010BD38B50C4601220B211046FBF72C
:104E400033FB194D4FF400636B610520FBF77CFBCE
:104E500001220D211046FBF727FB01220F211046EE
:104E6000FBF722FB00220E210120FBF71DFB012294
:104E70000A211046FBF718FB012209211046FBF717
:104E800013FB4FF400732B614FF400436B6103225B
:104E90000B210120FBF708FB4FF4FA70FBF754FBE2
:104EA000FFF704FF208038BD000C014010B50C4610
:104EB000FFF7FCFE208010BD38B5044600230B80B0
:104EC00003882BB1012B1BD04FF470430B8016E0ED
:104ED00045880120FFF7D0FE0120FFF7CDFE00201E
:104EE000FFF7CAFE0020FFF7C7FE211D2846FFF787
:104EF000EDFE0120FFF7C0FE0020FFF7BDFE38BD2C
:104F000045880120FFF7B8FE0020FFF7B5FE00201E
:104F1000FFF7B2FE211D2846FFF7D8FE0120FFF75C
:104F2000ABFE0020FFF7A8FEE9E738B50C460023EA
:104F30000B80428812F00F0318BF012303EB1213FA
:104F400002334B8003882BB1012B1BD04FF47043ED
:104F50000B8016E045880120FFF78EFE0120FFF749
:104F60008BFE0020FFF788FE0020FFF785FE211D45
:104F70002846FFF7DFFE0120FFF77EFE0020FFF747
:104F80007BFE38BD45880120FFF776FE0020FFF745
:104F900073FE0020FFF770FE211D2846FFF7CAFEB2
:104FA0000120FFF769FE0020FFF766FEE9E7000039
:104FB000144B1A7812F0080F4FF2220318BF002387
:104FC00012F0100F4FF2220118BF0B4612F0200F03
:104FD00018BF0B4612F0400F18BF0B4612F0800F9F
:104FE00018BF0B46074A527812F0010F4FF24201E8
:104FF00018BF0B4612F0020F4FF2220018BF1846DE
:10500000704700BF4016002038B568B1094B4FF417
:1050100080621A61074C4FF400552561064B5868B1
:10502000FDF73AFE656138BD024B4FF480625A616C
:10503000F0E700BF000C01404016002038B54124C5
:1050400001252846FFF7E0FF013CFAD10020FFF7D9
:10505000DBFF0020FFF7D8FF002038BD60B32DE94B
:10506000F8438946074600242546144E4FF400585D
:1050700018E015F0010F4FF4004314BF3361736162
:105080007B1EA34204BF4FF480633361C6F81080D7
:105090000B4B5868FDF700FE6D08C6F8148001340C
:1050A000BC4207D014F01F0FE3D1494651F8045B0E
:1050B0008946DEE7BDE8F883704700BF000C014079
:1050C0004016002038B504460D460120FFF79CFF2E
:1050D0000120FFF799FF0020FFF796FF0020FFF760
:1050E00093FF29462046FFF7B9FF0120FFF78CFF09
:1050F0000020FFF789FF38BD38B504460D46012072
:10510000FFF782FF0020FFF77FFF0020FFF77CFF03
:1051100029462046FFF7A2FF0120FFF775FF002078
:10512000FFF772FF38BD10B582B00C46400040F06A
:1051300001008DF807000DF107010820FFF7DCFFE3
:1051400021462020FFF7D8FF02B010BD2DE9F04F17
:1051500083B0ADF804000120FFF756FF0120FFF7F0
:1051600053FF0020FFF750FF0020FFF74DFF002402
:10517000A04601AD214E4FF4004ADFF884B01AE09A
:1051800017F0010F14BFC6F810A0C6F814A0092C20
:1051900017D04FF40059C6F81090DBF80400FDF763
:1051A0007BFDB368C3F38033A34048EA03087F085C
:1051B000C6F814900134A3B2002BE1D155F8047B5A
:1051C000DEE70E4D4FF480632B614FF400572F61E3
:1051D0000B4E7068FDF760FDAB686F61C3F3803301
:1051E000A34043EA080333600120FFF70DFF0020CE
:1051F000FFF70AFF03B0BDE8F08F00BF000C0140CD
:10520000401600202DE9F04F83B00191224B4FF45E
:1052100000425A6100283CD081460024274600F114
:10522000FF3A1E46DFF874B01CE04FF48063336130
:105230004FF40058C6F81080DBF80400FDF72CFD91
:10524000B368C3F3803305F01F0503FA05F52F4358
:10525000C6F81480019B43F8047B019300270134B6
:10526000A14516D0A5B2A245DFD04FF40058C6F82C
:105270001080DBF80400FDF70FFDB36805F01F0593
:10528000C3F38033AB401F43C6F814801F2DE6D113
:10529000E0E703B0BDE8F08F000C014040160020AD
:1052A00038B504460D460120FFF7AEFE0020FFF79B
:1052B000ABFE0020FFF7A8FE29462046FFF7A2FF1D
:1052C0000120FFF7A1FE0020FFF79EFE38BD30B59C
:1052D00083B00C4615469DF8043060F3060323F0B6
:1052E00080038DF804309DF8053003F0FE0343F091
:1052F00002038DF805300198FFF728FF600180B2A6
:105300002946FFF7CDFF9DF80430112262F3060312
:105310008DF804300198FFF719FF69462020FFF748
:10532000BFFF03B030BD0000F0B583B005460E46A8
:105330009DF80430102060F3060323F080038DF8FD
:1053400004309DF8053043F0010323F002038DF88B
:1053500005300A4C04F108073A460621FFF7B7FF6B
:105360006661A5610023E3610198FFF7EFFE39460E
:10537000C020FFF7C1FE03B0F0BD00BF4016002003
:1053800030B583B00C4615469DF8043060F3060333
:1053900023F080038DF804309DF8053003F0FE0300
:1053A00023F002038DF805300198FFF7CFFE60016E
:1053B00080B22946FFF7A0FE9DF8053043F00203B6
:1053C0008DF805309DF80430112262F306038DF844
:1053D00004300198FFF7BAFE69462020FFF760FF0E
:1053E00003B030BD2DE9F04782B080460D46174628
:1053F0000023019315228DF803204FEAD0090109FB
:105400006FF03F0261F3C5028DF8072065F38F034B
:10541000ADF8043001AC21460720FFF784FE0E23CF
:105420008DF802300DF102010820FFF765FE2146DC
:105430002020FFF735FF9DF8043013F0020F34D120
:105440006C1EA4B255B3012600250DF1030A3046A7
:10545000FFF7DAFD2846FFF7D7FD2846FFF7D4FD12
:1054600051460820FFF7FAFD3046FFF7CDFD3046E4
:10547000FFF7CAFD2846FFF7C7FD2846FFF7C4FD22
:1054800039464046FFF7EAFD4F443046FFF7BCFD82
:10549000013CA4B24FF6FF739C42D8D10020FFF725
:1054A000B3FD002002B0BDE8F08703F00100C0F5B5
:1054B0007040423080B2F5E72DE9F04F85B080466C
:1054C0000C4692460023039314228DF80B204FEADA
:1054D000D00901096FF07F0261F3C5028DF80F203A
:1054E00064F38F03ADF80C3003AD29460720FFF7B6
:1054F0001AFE0E238DF80A300DF10A010820FFF77D
:10550000FBFD29462020FFF7CBFE9DF80C3013F061
:10551000020F3ED1631E9BB2019384B3019C574698
:10552000012600250DF10B0B3046FFF76DFD2846D7
:10553000FFF76AFD2846FFF767FD59460820FFF789
:105540008DFD3046FFF760FD3046FFF75DFD2846D4
:10555000FFF75AFD2846FFF757FD39464046FFF74B
:1055600051FE4F443046FFF74FFD013CA4B24FF6C9
:10557000FF739C42D8D1CA44019B09FB03AA0024B3
:105580008AF800402046FFF73FFD204605B0BDE801
:10559000F08F03F00100C0F57040423080B2F5E7B3
:1055A00010B502460C464FF07E511020FCF794FFD8
:1055B000024B5860024B1C7010BD00BF401600200B
:1055C000E700002070B584B00C464FF470430B80A8
:1055D0003A4B1B78012B03D0032B19D004B070BDBC
:1055E00011238DF808300025ADF80C50FFF726FD8B
:1055F00002A90520FFF766FD9DF80C307E2262F3BC
:1056000006038DF80C300398FFF7A0FD2580E5E731
:1056100011238DF803300025ADF804500295284B76
:105620001D80FFF70BFD0DF103010520FFF74AFD7B
:105630009DF804307E2262F306038DF80430019851
:10564000FFF784FD03AE324601211220FFF73FFE33
:10565000039B43F4004343F00703039332460121C5
:105660001220FFF78DFE9DF80B3043F080038DF87C
:105670000B3002AE324601213120FFF781FE9DF84A
:105680000B30022262F305138DF80B309DF80830C1
:1056900043F001038DF80830324601213120FFF735
:1056A0006FFE9DF804307C2262F306038DF804300F
:1056B0000198FFF74BFD258090E700BFE700002031
:1056C0004016002030B587B00C460388102B1AD046
:1056D0004288042A01D0012B1CD8002323800423F4
:1056E00063800388162B00F29680DFE803F01738FA
:1056F00046949494949494949494949494944E583A
:10570000626C76808A004388182BE6D04FF2020341
:105710000B8085E04FF202030B8081E0428812F09B
:105720000F0318BF012303EB121302336380458874
:105730000120FFF769FC0120FFF766FC0020FFF75E
:1057400063FC0020FFF760FC211D2846FFF75AFD8F
:105750000120FFF759FC0020FFF756FC60E042886B
:1057600012F00F0318BF012303EB121302336380FF
:10577000211D4088FFF794FD52E0221D01210220E7
:10578000FFF7A5FD002323804AE0221D06211020FB
:10579000FFF79DFD002323800E23638040E06A46CF
:1057A00006211020FFF793FD059B636000232380F3
:1057B00036E06A4606211020FFF789FD049B6360EE
:1057C000002323802CE06A4606211020FFF77FFD8E
:1057D000039B63600023238022E06A460621102099
:1057E000FFF775FD029B63600023238018E06A4683
:1057F00006211020FFF76BFD019B636000232380CF
:105800000EE06A4606211020FFF761FD009B6360F1
:105810000023238004E04FF470432380022363803D
:1058200007B030BD70B586B004460D460388102B16
:1058300018D04288042A01D0012B1BD800232B80CA
:105840002388162B00F28680DFE803F0181D84847D
:10585000848484848484848484848484222A39484B
:10586000576675004388182BE8D04FF202030B806F
:1058700006B070BD4FF202030B80F9E7211D60886E
:10588000FFF720FCF4E7211D6088FFF735FCEFE708
:10589000221D06211020FFF773FD00232B80E7E770
:1058A0006A4606211020FFF712FD636805936A46D9
:1058B00006211020FFF764FD00232B80D8E76A46FD
:1058C00006211020FFF703FD636804936A46062152
:1058D0001020FFF755FD00232B80C9E76A460621FB
:1058E0001020FFF7F4FC636803936A46062110203A
:1058F000FFF746FD00232B80BAE76A4606211020F9
:10590000FFF7E5FC636802936A4606211020FFF763
:1059100037FD00232B80ABE76A4606211020FFF7F6
:10592000D6FC636801936A4606211020FFF728FD24
:1059300000232B809CE76A4606211020FFF7C7FC56
:10594000636800936A4606211020FFF719FD0023C3
:105950002B808DE74FF470432B8089E738B545687D
:105960004FF202030B806B1E1F2B00D938BD0C4673
:1059700001460920FFF7D7FB15F0030F14D015F0EF
:10598000010F04F1040219BFA9B20820C5F34F01A9
:105990001020FFF791FD2080638860B90135C5F3C1
:1059A0004F052B446380E1E7221DC5F38F012020C2
:1059B000FFF782FDEFE70025F3E770B546684FF289
:1059C00002030B8002234B80731E1F2B00D970BD76
:1059D00005460C4601460920FFF7A5FB16F0030F0C
:1059E0000DD016F0010F05F1080219BFB1B2082061
:1059F000C6F34F011020FFF7F5FC2080E7E705F123
:105A00000802C6F38F012020FFF7ECFC2080DEE7C0
:105A100070B582B00C464388042B3FD1436805889B
:105A2000B5B90289042A02D04FF2020038E0D0F85A
:105A30000A101846FFF778FC01AA01211120FFF790
:105A400046FCFFF7B5FA6388002818BF002504E07C
:105A5000022D05D04B88002005462B4463801FE0B3
:105A6000C1680589042D2ED0082D1CD14289042A35
:105A700002D04FF2020013E01846FFF755FC154E16
:105A800006F1080206211020FFF721FCB3686360CD
:105A9000F368A360FFF78CFA6D08D4E74FF20200B9
:105AA000208002B070BD4FF20200F9E71846FFF700
:105AB0003BFC084E06F1080206211020FFF707FC08
:105AC000B3686360E6E74289042AEFD04FF2020030
:105AD000E6E700BF4016002070B582B0064680F4AD
